:020000040800F2
:10000000480B00209D010008032200082F21000852
:1000100001220008DD0A0008AF27000800000000E8
:10002000000000000000000000000000072200089F
:100030000D0C00080000000005220008B522000891
:10004000B7010008B7010008B7010008B7010008B0
:10005000B7010008B7010008B7010008B7010008A0
:10006000B7010008B7010008B7010008B701000890
:10007000B7010008450B0008B7010008B7010008E8
:10008000510B00085D0B0008B7010008B70100081C
:10009000B7010008B7010008B7010008B701000860
:1000A000B7010008B7010008B7010008B701000850
:1000B00069230008B7010008B7010008B70100086C
:1000C000B7010008B7010008B7010008B701000830
:1000D000B7010008B7010008B7010008B701000820
:1000E000B7010008B7010008B7010008B701000810
:1000F000B7010008B7010008B7010008B701000800
:10010000B7010008B701000875230008B70100080F
:10011000B5240008B7010008B7010008B7010008BE
:10012000B7010008B7010008B7010008B7010008CF
:10013000B7010008B7010008B7010008B7010008BF
:10014000B7010008B7010008B7010008B7010008AF
:10015000B7010008B7010008B7010008B70100089F
:10016000B7010008B7010008B7010008B70100088F
:10017000B7010008B7010008B7010008000000003F
:10018000B7010008B7010008DFF80CD000F09EFAB4
:100190000048004751280008480B002006488047C7
:1001A00006480047FEE7FEE7FEE7FEE7FEE7FEE75C
:1001B000FEE7FEE7FEE7FEE74D23000889010008A1
:1001C0002DE9F05F0546002092469B46884606468C
:1001D000814640241BE0284641464746224600F01F
:1001E00083F953465A46C01A914110D31146184616
:1001F000224600F06AF92D1A67EB01084F462246A5
:100200000120002100F061F917EB00094E41201E8A
:10021000A4F10104DFDC484631462A464346BDE8E6
:10022000F09FD2B201E000F8012B491EFBD27047CB
:100230000022F6E710B513460A4604461946FFF7B2
:10024000F0FF204610BD30B505462A460B4612F891
:10025000010B13F8014B08B1A042F8D01CB10028E3
:1002600002D06D1CF1E7284630BD421C10F8011B7E
:100270000029FBD1801A70472DE9FE4F81EA030463
:1002800004F0004421F0004100944FF0000B23F0F3
:10029000004350EA01045ED052EA03045BD0C3F38A
:1002A0000A54C1F30A552C44A4F2F3340194A0FB80
:1002B0000254C1F3130141F48011C3F3130343F457
:1002C000801301FB024400FB034E840A970A44EAB0
:1002D000815447EA8357A4FB076802958D0A05FB02
:1002E00007854FEA932C04FB0C542705029D4FEA27
:1002F000065847EA1637B5EB08056EEB070C870E74
:10030000920E47EA811742EA8312A7FB0201B6EB7D
:100310000B0164EB00042B0D43EA0C335E1844EB35
:100320001C50DA465146E7FB0201C5F313044FEABD
:100330000B3343EA14534FEA0432019C43EA0603A9
:10034000A4F10C040294009CCDE900B400F070F913
:1003500003B0BDE8F08F00200146F9E72DE9F04D2C
:1003600081EA030404F0004B21F0004514464FF0ED
:10037000000A23F0004150EA050220D054EA0102AD
:100380001DD0C5F30A570246C5F31303C1F313008A
:10039000C1F30A5640F4801543F48013A7EB060816
:1003A000101BD64608F2FD3873EB050002D308F1A6
:1003B000010801E092185B41B8F1000F03DA002058
:1003C0000146BDE8F08D00204FF4801106468446BA
:1003D0000EE0171B73EB050705D3121B63EB050338
:1003E00006434CEA010C49084FEA300092185B4181
:1003F00050EA0107EDD152EA030012D082EA04006C
:1004000083EA0501084305D0101BAB4106D2012247
:10041000002306E000224FF0004302E06FF00102EB
:1004200053101AEB06004CEB085110EB0A0041EB9D
:100430000B01BDE8F04D00F0ECB8C1F30A5210B565
:10044000C1F3130140F2FF3341F480119A4201DA03
:10045000002010BD40F233439A42A2F2334203DC43
:10046000524200F041F810BD904010BD00F0004233
:1004700030F000400AD0C10D01F56071C0F31600E4
:1004800042EA0151C208400711437047002001466B
:10049000704701F0004330B421F0004150EA0102FE
:1004A00006D00A0DA2F56072C1F31301002A02DC26
:1004B00030BC00207047440F44EAC104C100E0187A
:1004C00030BC00EBC25000F06DB8202A04DB203AAB
:1004D00000FA02F1002070479140C2F1200320FA97
:1004E00003F3194390407047202A04DB203A21FA95
:1004F00002F00021704721FA02F3D040C2F120023D
:1005000091400843194670470FB4002300B589B0E5
:100510000CA900910B996FF00042CB601E4B069323
:100520001E4B07930423CDE901321D4A089202466F
:100530006B46002000F076F909B05DF814FB70B549
:1005400086B006464FF0FF300091CDE90101002052
:1005500015460C4604903246694604A8FFF7D4FFBE
:1005600002460498211825B108B1084600E020464B
:100570002860049800280DD0002A02DD00988842E7
:1005800008D0081B0094CDE901043246694604A84E
:10059000FFF7BAFF06B070BD5D0A00087B0A0008CD
:1005A000F10600080029A8BF7047401C490008BF99
:1005B00020F00100704710B4B0FA80FC00FA0CF093
:1005C00050EA010404BF10BC704749B1CCF12004CB
:1005D00021FA04F411FA0CF118BF01212143084358
:1005E000A3EB0C01CB1D4FEA00614FEA102042BF84
:1005F000002010BC704700EBC35010440029A4BF7A
:1006000010BC7047401C490008BF20F0010010BC1E
:10061000704710B5141E73F1000408DA401C41F154
:10062000000192185B411A4301D120F0010010BD76
:100630002DE9F04D92469B4611B1B1FA81F202E0EC
:10064000B0FA80F220329046FFF73FFF04460F4693
:1006500040EA0A0041EA0B0153465A46084313D0C8
:10066000114653EA010019D0C8F140025046FFF785
:100670003BFF05460E46504659464246FFF725FFCA
:10068000084305D0012004E020463946BDE8F08D3E
:100690000020054346EAE0762C4337430A98630579
:1006A000E40AA0EB08000022FD0A44EA47540A309D
:1006B00002D500200146E9E7010510196941DDE98D
:1006C000084500196941BDE8F04DA2E7064C074D09
:1006D00006E0E06840F0010394E807009847103412
:1006E000AC42F6D3FFF754FDE4290008042A0008C1
:1006F000C0B24FF4F05100F0D1B900002DE9FF4F26
:10070000087883B09946FF2805D0491C2D2804D0CD
:100710000024002008E000200BE00124F9E700EBB2
:10072000800003EB4000491C0B78FF2BF7D104B18C
:10073000404200230293147819461D462D2C01D007
:100740002B2C04D1521C2D2C13D000240294AA4629
:100750001478FF2C0FD00A25A3FB057801FB058137
:100760004FF0000C03FB0C11521CE3194AEB010182
:10077000EEE70124EAE7814453EA010002D019F5CB
:10078000C87F06DA03980021C0E9001107B0BDE870
:10079000F08F0025AE4E2F46DFF8B882184600F0E5
:1007A00091F9CDE90001B9F1000002DAC9F10004C4
:1007B00000E004460023A74A1AEB030B42EB045A5D
:1007C00012E0E00707D02A46334638464146FFF795
:1007D00053FD074688462A46334610461946FFF71A
:1007E0004BFD05460E466410002CEAD1DDE9000100
:1007F000B9F1000F5A46534606DAFFF7AFFD3A4605
:100800004346FFF7ABFD05E0FFF736FD3A464346AA
:10081000FFF732FD029A0AB181F00041039AC2E962
:100820000001B3E72DE9FF4F1F468DB0D7E9014620
:100830004FF0FF382E2045464FF000090B90B96964
:100840006D1C0E988847396A824688470028F6D181
:10085000BAF1FF3F0AD024F4D064002E11DDBAF1C2
:100860002B0F08D0BAF12D0F0BD102E0404611B08A
:100870008DE744F48064B9696D1C0E988847824600
:10088000761E6946600501D52D2000E02B208DF8ED
:10089000000001F1010B0DF1200809E0B9696D1CA0
:1008A0000E98884782460F9844F40074761E0560BF
:1008B000002E02DDBAF1300FF0D00B998A453ED1FF
:1008C00044F0800406E00F99681CA9F1010944F482
:1008D00000740860B9696D1C761E0E9888478246C0
:1008E0003028F0D02BE00B998A4505D1200603D49F
:1008F00044F08004761E18E0504601F0A1FF08B3D2
:100900000DF11301761E44F400748B4508D2AAF150
:1009100030000BF8010B200607D5A9F1010003E018
:10092000200602D409F101008146A00502D50F99E5
:10093000681C0860B9696D1C0E9888478246002EB5
:10094000D1DC53E0002E51DDBAF1650F02D0BAF1CF
:10095000450F4BD1A00549D5B9696D1C24F44074ED
:10096000761E0E9888478246002E0CDD2B2804D078
:10097000BAF12D0F07D144F48074B9696D1C0E983B
:1009800088478246761EE00501D52D2100E02B2107
:1009900008F8011BCDF82C8021E00DF12901761E0D
:1009A00044F4007488450CD2AAF1300010F0FF0026
:1009B00088F8000002D10B99884509D908F101088F
:1009C00006E0E00501D5244801E042F20F708146BF
:1009D000B9696D1C0E98884782460F980560002EF5
:1009E00004DD504601F02CFF0028D6D1F9690E989D
:1009F0008847FF208BF8000088F800000020069050
:100A000007904B466A4608A906A8FFF777FEA0059F
:100A100002D46FF001002AE714F0240F0AD0E00797
:100A200014D1DDE906123868031D3B600068C0E997
:100A300000120BE0DDE90601FFF72BFD0146E007A0
:100A400004D13868021D3A600068016028460EE74C
:100A5000000014400000F03FF1D8FFFF426842B1AF
:100A6000016811F8013B23B1521EC0E9001218467B
:100A700070470121C160881E704742685AB1C3683F
:100A8000016843B983688B4205D0491E521CC0E9F6
:100A90000012002070474FF0FF3070477F2801D9C7
:100AA000002208E0064A02EB5002C007127800D18B
:100AB000120902F00F020120904008407047000028
:100AC000A22900080EB540F2334202920022CDE97D
:100AD00000221346FFF7ACFD03B000BDFEE710B5E2
:100AE000846B204600F0B9F80120207110BD10B5CC
:100AF000846B204600F08DF80120207110BD10B5E8
:100B0000846B206940F004002061204600F0A7F8C3
:100B10000120207110BD10B5846B206940F00400E5
:100B20002061204600F077F80120207110BD10B53B
:100B3000806B00F093F810BD10B5806B00F06AF880
:100B400010BD0000014800F0D3B90000E406002009
:100B5000014800F0CDB9000024060020014800F053
:100B6000C7B900008406002001681823CAB2103AF1
:100B7000B2FBF3F2054B6FF30901032A9B5CC365DB
:100B800000D9091D816508467047000082290008C8
:100B900010B5014600208B698A6A4FF0C07453B1CA
:100BA000B3F5005F15D072B1012A0CD0022A0AD029
:100BB000032A09D104E01AB1012A06D0022A03D17E
:100BC000C96AC90100D5012010BDC96AA142FAD085
:100BD00010BD002AF7D0012AF2D0022AF3D0032A4E
:100BE000F3D010BD30B50468256825F48025256054
:100BF000046863608368402B036803D099600068D1
:100C0000C26030BD9A600068C16030BD704772B686
:100C1000FEE770477047704770B54379012B1AD0D3
:100C2000012646710223037105682C6840F6FE73A5
:100C300093409C43D1E900310B43934023432B6005
:100C400001680B68C0249440A3430B600671002127
:100C50004171084670BD022070BD704770477047F3
:100C600070B5040003D02079002510B105E0012003
:100C700070BD6571204600F007F8022020712561E3
:100C800001202071002070BD2DE9F04F87B006468D
:100C900014216846FFF7CCFA2B49306888424FD1BF
:100CA0002A480025016841F000510160006800F009
:100CB0000050059025481038016841F0010101609D
:100CC0000068694600F00100059030200090032084
:100CD000CDE901051E4800F07DFA1F4C1D484FF07C
:100CE00060674FF0400884E881010015C4E90350B3
:100CF0004FF4807BC4E907B54FF480594FF4804A24
:100D00006562C4E9059A204600F0C2F908B1FFF710
:100D10007EFFB460A6630F48104C183084E8810150
:100D20000015C4E90350C4E907B56562C4E9059A32
:100D3000204600F0ADF908B1FFF769FFF460A66343
:100D400007B0BDE8F08F000000740040403802405A
:100D50000000024088600240240600208406002033
:100D600030B54279012A16D0012242710223037163
:100D700003681D6802FA01F425431D60002901681B
:100D80000B680AD00C6803F4802304F46014B3F5F4
:100D9000802F0FD015E0022030BD0C6803F0040353
:100DA00004F03804042B0CD1382C0AD14B6843F0E2
:100DB000010305E0B4F5601F03D14B6843F0020363
:100DC0004B60027100214171084630BD2DE9F041B0
:100DD00004460D461746617900220698012920D065
:100DE0000126667102212171F5B1D4F80CC0314998
:100DF000CCF83C10D4F80CC02F49CCF84010D4F8F3
:100E00000CC02E49CCF84C102168D1F800C04CF031
:100E1000805CC1F800C090B3042834D0082837D1D2
:100E200034E00220BDE8F081D4F808C02449CCF8B1
:100E30003C10D4F808C02349CCF84010D4F808C0BE
:100E40002149CCF84C102168D1F800C04CF4805CEA
:100E5000C1F800C020B1042805D0082808D105E059
:100E60002268083204E022680C3201E02268103265
:100E70002068016841F400510160A0680EE0FFE7BE
:100E80002268143204E02268183201E022681C3221
:100E90002068016841F000510160E068394600F0C7
:100EA00061F920680168AE40314301600020607143
:100EB000B8E70000EF0A0008390B0008170B00081C
:100EC000DF0A00082F0B0008FF0A000890F8351011
:100ED000022903D08021416501207047052180F857
:100EE00035100068016821F00101016000207047A1
:100EF0002DE9F84304464FF00009CDF8009063480F
:100F00004FF41651A56D0068B0FBF1F72E6894F808
:100F10005C10082000FA01F131420FD021680A6804
:100F200052070BD50A6822F004020A6094F85C109C
:100F30008840A860606D40F00100606594F85C1026
:100F40004FF0010808FA01F0304208D021684969E1
:100F5000090604D5A860606D40F00200606594F851
:100F60005C1004208840304208D021680968890755
:100F700004D5A860606D40F00400606594F85C10D2
:100F800010208840304218D021680968090714D51C
:100F9000A86020680168490304D50068000308D5EB
:100FA000A16C07E00168C90503D4016821F00801BC
:100FB0000160216C09B12046884794F85C1020201C
:100FC0008840304231D021680968C9062DD5A86013
:100FD00094F8350005282068016806D0490347D5F4
:100FE000006800031DD4616C1CE021F01601016053
:100FF0002068416921F080014161206C08B9A06C32
:1010000020B12068016821F00801016094F85C10AB
:101010003F208840A86084F8349084F83580216DA2
:101020001FE0E16B09B120468847606D00282BD096
:10103000606DC00714D0052084F835002068016871
:1010400021F0010101600098401C0090B84203D8D3
:1010500020680068C007F6D184F8349084F83580A1
:10106000E16C002910D001B02046BDE8F0430847EC
:101070000168C905D5D4016821F01001016084F828
:10108000349084F83580CCE7BDE8F8832000002058
:101090002DE9F041044600F079F906465CB10025DF
:1010A00084F83450022084F835002068016821F06B
:1010B000010101600DE00120BDE8F08100F066F95A
:1010C000801B052805D920206065032084F83500A1
:1010D000F2E720680068C007F0D122681168204854
:1010E0000140D4E901031843D4E9033633431843DC
:1010F00063691843A3691843E3691843236A1843D3
:101100000843616A042903D1D4E90B131943084346
:10111000106020684069666A20F0070130460E437F
:10112000012704280CD1A06A0643E06A40B120469A
:10113000FFF72EFD20B14020606584F83570BAE7D6
:10114000206846612046FFF70FFD94F85C203F21A0
:1011500091408160656584F835700020ACE700003F
:101160003F8010F02DE9F0410446866D90F8340080
:10117000002501280DD0012084F8340094F8357042
:101180000020012F07D084F8340002252846BDE84E
:10119000F0810220FBE7022784F835706065204665
:1011A000FFF720FD94F85C103F208840B060206875
:1011B000016841F016010160206C20B120680168CF
:1011C00041F0080101602068016841F001010160FF
:1011D000DCE700002DE9F84F00224FF0010803255D
:1011E0004FF00F0E0B6808FA02F42340A3426ED1B1
:1011F0004E68012E05D0022E03D0112E01D0122EE2
:1012000012D186684FEA420C05FA0CF7BE43CF684C
:1012100007FA0CF7374387604668A6430C79C4F396
:101220000014944034434460C668570005FA07FC34
:101230008C6826EA0C06BC403443C4604C68022C1F
:1012400001D0122C13D1D40800EB8404A346D4F8A7
:10125000209054074FEAD46A0EFA0AF629EA0609E2
:101260000E6906FA0AF646EA0906CBF82060066817
:101270000C7926EA0C0604F00304BC4034430460F5
:101280004C68E40065D5364C266846F480462660F6
:10129000246822F0030604F480440094314C344462
:1012A000A446D4F808489607370F0EFA07F6B44359
:1012B0002D4EB04201D1002624E02C4EB04201D187
:1012C00001261FE02A4EB04202D102261AE040E079
:1012D000284EB04201D1032614E0274EB04201D17E
:1012E00004260FE0254EB04201D105260AE0244E27
:1012F000B04201D1062605E0224EB04201D10726B8
:1013000000E00826BE402643CCF808681E4E34682C
:101310004F689C43FF0300D51C4334601A4C241DC6
:1013200026684F689E43BF0300D51E432660164EB5
:10133000083634684F689C43FF0200D51C43346074
:10134000114E0C3634684F689C43BF0200D51C43D5
:101350003460521C102AFFF445AFBDE8F88F00003E
:1013600044380240003001400000024000040240C6
:1013700000080240000C024000100240001402402D
:1013800000180240001C0240003C014001488068F7
:101390007047000014000020024881680278114460
:1013A00081607047140000200B4810B5016841F4BB
:1013B00000710160016841F480610160016841F4DD
:1013C00080710160032000F06FF8002000F006F843
:1013D00000F024F8002010BD003C024070B50D4D17
:1013E00004464FF47A712878B1FBF0F00A49096895
:1013F000B1FBF0F000F002FB48B9102C07D200223C
:101400002146501E00F030F800206C6070BD0120B5
:1014100070BD000014000020200000200A4808B51C
:10142000016841F480410160006800F48040009050
:101430000548001F016841F080510160006800F01C
:101440008050009008BD000044380240002809DBAD
:1014500000F01F02012191404009800000F1E020CE
:10146000C0F8001170470000F0B40E4B1B680C462A
:10147000C3F30223C3F10705042D00D90425191D68
:10148000072901D2002300E0DB1E012606FA05F140
:10149000491E214099409E40761E16403143F0BCC3
:1014A00001F086B90CED00E0064900F0070208687B
:1014B0004FF6FF03184040EA0220034A1043086039
:1014C000704700000CED00E00000FA052DE9F04740
:1014D0000E46050065D0DFF81481D8F80000F7B299
:1014E00000F00F00B04207D288F80070D8F8000072
:1014F00000F00F00B04254D128683D4C810712D54E
:10150000400703D5206840F4E050206028780007A9
:1015100003D5206840F4604020602068A96820F06E
:10152000F000084320602878C0072DD03049686853
:101530000839012812D0022813D0032811D00968D5
:10154000890700292DDA216821F003010143216078
:10155000FFF71CFF814641F2883A0EE009688903D3
:10156000EFE709688901ECE7FFF710FFA0EB09013D
:10157000514502D90320BDE8F0872068696800F072
:101580000C00B0EB810FEFD1D8F80010404601F00D
:101590000F01B14207D90770006800F00F00B04298
:1015A00001D00120E7E72878400705D52068E968E1
:1015B00020F4E050084320602878000706D5206812
:1015C000296920F4604040EAC100206000F038F84A
:1015D0002168084AC1F30311515CC84006490860FC
:1015E00006480068FFF7FAFE0020C4E7003C02400E
:1015F000083802408A290008200000201800002036
:101600000448054900680968044AC1F38221515C15
:10161000C840704720000020083802409A2900087E
:101620000448054900680968044AC1F34231515C25
:10163000C840704720000020083802409A2900085E
:10164000154810B5006810F00C02144813D0411072
:10165000042A0FD0082A0ED10F4C241F22682368B9
:1016600002F03F025B0207D52068C0F38810A0FBA0
:10167000010106E0084610BD2168C1F38811A1FBF5
:1016800000010023FEF79CFD2168C1F30141491CC4
:101690004900B0FBF1F010BD083802400024F4000E
:1016A0002DE9F84F04006ED02078DFF83C93C00796
:1016B000A9F104054AD009F104000168C1F38101D0
:1016C000012908D00068C0F3810002280AD1D9F8A6
:1016D0000000400206D52868800337D560680028DE
:1016E000E1D033E06068B0F5803F10D0B0F5A02FB6
:1016F000286810D020F480302860286820F48020EA
:1017000028606068A8B1FFF741FE06460DE0286832
:1017100040F48030F4E740F480202860F7E700BF11
:10172000FFF734FE801B642873D828688003F7D540
:101730000CE0FFF72BFE064605E000BFFFF726FE94
:10174000801B6428F0D828688003F7D42078DFF85D
:101750009C8280074FF0000A3ED5A348001D016817
:1017600011F00C0F08D00068C0F3810002280BD1E3
:10177000D9F80000400207D42868800716D5E06831
:10178000012800D112E02BE1E068B8B10120C8F8CF
:101790000000FFF7FBFD064605E000BFFFF7F6FD82
:1017A000801B0228C0D828688007F7D528682169DF
:1017B00020F0F80040EAC10028600DE0C8F800A061
:1017C000FFF7E4FD064604E0FFF7E0FD801B02287A
:1017D0001FD828688007F7D42078000722D5824ECA
:1017E00083486169703671B101210160FFF7CEFD58
:1017F000074604E0FFF7CAFDC01B022809D830687D
:101800008007F7D50EE0C0F800A0FFF7BFFD074640
:1018100005E082E0FFF7BAFDC01B02287DD83068E2
:101820008007F7D42078400768D5DFF8BCB10027DF
:101830000BF13C0BDBF80000C0000BD4DBF8001010
:1018400041F08051CBF80010DBF80000012700F0D8
:1018500080500090674E3068C00510D4306840F466
:1018600080703060FFF792FD009005E0FFF78EFD7D
:101870000099401A022850D83068C005F6D55A4E53
:10188000A0686C3601280FD00528306810D020F0F1
:1018900001003060306820F004003060A068B8B10A
:1018A000FFF774FD00900FE0306840F00100F4E7AE
:1018B00040F004003060F7E7FFF768FD0099411A37
:1018C00041F28830814266D830688007F4D50EE056
:1018D000FFF75CFD009007E0FFF758FD0099411A03
:1018E00041F28830814256D830688007F4D42FB155
:1018F000DBF8001021F08051CBF80010A069C8B3CC
:101900003949091D0968C1F3810102294AD0022819
:10191000504607D0C8F8600000E03CE0FFF736FD15
:1019200004463BE04746C8F86000FFF72FFD064637
:1019300005E000BFFFF72AFD801B02282BD828688E
:101940008001F7D4D4E907010843A16A2A4A49086B
:1019500002EB0141626A41EA8211084394F82C10BB
:1019600040EA0161C9F8001001203866FFF70EFD5A
:10197000044606E036E000BFFFF708FD001B022822
:1019800009D828688001F7D52CE000BFFFF7FEFCDE
:10199000001B022802D90320BDE8F88F28688001C7
:1019A000F4D41FE00128F7D0D9F80000E26900F470
:1019B0008001914214D1226A00F03F0191420FD17F
:1019C00047F6C071626A0140914209D1A26A00F4EF
:1019D0004031914204D1E16A00F07060884201D048
:1019E0000120D9E70020D7E7043802400000474231
:1019F000800E4742007000400000FFFF10B5401EFF
:101A0000B0F1807F01D3012010BD4FF0E024606170
:101A10000F21601700F0CCFE0020A061072020619C
:101A2000002010BD7047704770B590F83C20012A27
:101A300032D0012480F83C40022280F83D20036827
:101A40005A689D6822F070060A6832435A60134B48
:101A500002689A4214D0B2F1804F11D0104B9A42D2
:101A60000ED0104B9A420BD00F4B9A4208D00F4B1E
:101A70009A4205D00E4B9A4202D00E4B9A4204D1A4
:101A8000496825F080031943916080F83D400021AA
:101A900080F83C10084670BD022070BD0000014077
:101AA0000004004000080040000C00400004014019
:101AB000004001400018004010B5040003D094F825
:101AC0003D0010B107E0012010BD002084F83C006B
:101AD000204600F00DF8022084F83D00211D20680A
:101AE00000F04EFC012084F83D00002010BD0000F5
:101AF00008B501681448B1F1804F14D0134A9142DF
:101B000020D1016841F0080101600068002200F066
:101B10000800009011463220FFF7A6FC3220BDE8F5
:101B20000840FFF793BC016841F0010101600068C3
:101B3000002200F00100009011461C20FFF794FCE9
:101B40001C20ECE708BD000040380240000C0040BB
:101B5000022180F83D1001688A6802F00702062A17
:101B600003D00A6842F001020A60012180F83D10AA
:101B70000020704770B5044690F83C00012817D04B
:101B8000012584F83C50022084F83D0020688268DA
:101B900022F0770222F47F4282600868502830D019
:101BA0000DDC20284DD005DC98B310283BD148E04F
:101BB000022070BD302844D0402834D139E060285C
:101BC00028D0702806D0B0F5805F2CD0B0F5005F2B
:101BD00029D10AE0CB68D1E90121206800F034FC6A
:101BE0002068816841F0770109E0CB68D1E90121E3
:101BF000206800F029FC2068816841F48041816000
:101C000011E0CA684968206800F030FC5021206863
:101C100007E016E0CA684968206800F038FC6021D7
:101C2000206800F01BFC84F83D50002084F83C0044
:101C300070BDCA684968206800F018FC402120681F
:101C4000EFE7226801461046EBE7704770B504469F
:101C5000006801694FF00005C943890715D4C168C0
:101C6000C943890711D4E91E01610120207720684A
:101C700080698007204602D0FFF7E7FF04E000F00C
:101C800098F8204600F096F8257720680169C94346
:101C9000490717D4C168C943490713D46FF0040139
:101CA0000161022020772068806910F4407F20467F
:101CB00002D0FFF7CAFF04E000F07BF8204600F0F6
:101CC00079F8257720680169C943090716D4C168E6
:101CD000C943090712D46FF008010161042020777D
:101CE0002068C0698007204602D0FFF7AEFF04E0FD
:101CF00000F05FF8204600F05DF825772068016964
:101D0000C943C90617D4C168C943C90613D46FF0C3
:101D100010010161082020772068C06910F4407F1D
:101D2000204602D0FFF791FF04E000F042F8204681
:101D300000F040F8257720680169C943C90708D138
:101D4000C168C943C90704D1891E0161204600F05A
:101D500032F820680169C943090609D4C168C9433A
:101D6000090605D46FF0800101612046FFF75AFE95
:101D700020680169C943490609D4C168C9434906B5
:101D800005D46FF040010161204600F015F820688D
:101D90000169C94389060BD4C168C943890607D4C0
:101DA0006FF0200101612046BDE87040FFF73BBEA7
:101DB00070BD7047704770477047704770B50268D4
:101DC00004461068D168536910F00F0F52D003F029
:101DD000010501F490762E435FD0C20705D0CA05F5
:101DE00003D5E26B42F00102E263420705D5DA0750
:101DF00003D0E26B42F00202E263820705D5DA0704
:101E000003D0E26B42F00402E263020707D501F05F
:101E100020022A4303D0E26B42F00802E263E26B45
:101E2000002A33D0800604D5880602D5204600F06B
:101E3000AEFB20684069E16BC0F38010090700D455
:101E400028B3204600F08CFB2068416949061AD56A
:101E5000416921F040014161606BA0B11B490165FE
:101E6000606BFFF733F8002810D0606B016DBDE8A0
:101E700070400847830610D58B060ED52046BDE876
:101E8000704000F084BB2046FFF797FF70BD2046EE
:101E9000FFF793FF0020E06370BD030606D50B0635
:101EA00004D52046BDE8704000F050BC4006F3D594
:101EB0004806F1D5D168204621F04001D1602021AB
:101EC00084F8391000F032F970BD0000C124000818
:101ED00070B5040004D094F83900002510B106E074
:101EE000012070BD84F83850204600F023F82420EB
:101EF00084F839002068C16821F40051C16020468F
:101F000000F090FB2068016921F490410161206894
:101F1000416921F02A0141612068C16841F4005102
:101F2000C160E563202084F8390084F83A0000207D
:101F300070BD000070B586B0064614216846FEF7F5
:101F400077F92349306888423FD12248002501684B
:101F500041F400210160006800F4002005901D4854
:101F60001038016841F0010101600068022100F0B1
:101F7000010005900320CDE900010121CDE9021007
:101F80000820049069461448FFF724F9144C1348BC
:101F900020604005C4E901054014C4E903508010E5
:101FA0006561C4E90650256220466562FFF770F856
:101FB00008B1FEF72CFE7463002211463420A6639C
:101FC000FFF752FA3420FFF741FA06B070BD000067
:101FD000004C004040380240000002404060024097
:101FE000E4060020F8B5044690F83A0020283CD1D9
:101FF000C1B3BAB394F83800012836D0012084F870
:102000003800A162A2850025E563222084F83A0009
:10201000636B1748D863636B16481864636B164884
:10202000D864606B134605650846666B21680246F6
:102030003046091DFFF796F8206801684168009155
:1020400084F83850C16841F48071C16020684169EA
:1020500041F0010141612068416941F04001416165
:102060000020F8BDFFE70120FBE70220F9E70000B0
:102070001B25000857250008D124000870470000E0
:1020800038B5234C3C212069401C20612148FEF7D3
:10209000CFF820490020A1F13C02135C0B54401CF6
:1020A0003C28FAD31A4A1CA11A4800F057FC184AD7
:1020B0001AA1121D174800F051FC154A18A1083248
:1020C000144800F04BFC124A16A10C32114800F0E3
:1020D00045FC10483C213C38FEF7AAF80D493C224B
:1020E0003C39A1F14000FFF77DFF0A48FC38FFF7BB
:1020F0002FFD94EC020A00F087F800200A4A0146FE
:1021000000906423A2F53770FEF760FE38BD000032
:10211000000000203801002061313D0066313D00A3
:1021200061323D0066323D00040300207047FEE747
:1021300010B586B0002416480094019402940394CC
:1021400004944FF08041059401605321C0E90114CB
:102150001049C0E903148461FFF7AEFC08B172B600
:10216000FEE74FF48050009069460948FFF702FDF2
:1021700008B172B6FEE72020CDE9040404A90448A2
:10218000FFF752FC002801D072B6FEE706B010BD82
:102190003C0000203F420F0010B586B000241748D5
:1021A00000940194029403940494134905940160EB
:1021B0005321C0E9011442F20F71C0E90314846194
:1021C000FFF77AFC08B172B6FEE74FF4805000903A
:1021D00069460A48FFF7CEFC08B172B6FEE7202038
:1021E000CDE9040404A90548FFF71EFC002801D02E
:1021F00072B6FEE706B010BD000C00407C00002067
:10220000FEE7FEE77047704770B521492DED028B60
:10221000B0EE408A9FED1D0A0A6880EE201AB7EEE4
:10222000000A31EE400AFCEEC00A10EE900AD062BD
:10223000C1ED030A002401F53275322C02DA9FED5C
:10224000151B17E018EE100AFEF710F99FED131B8F
:1022500053EC112BFEF710F89FED121B53EC112BD2
:10226000FEF70AF89FED111B53EC112BFEF776F8E1
:1022700041EC110B51EC110BFEF7DFF845F824008F
:10228000641C642CD9DBBDEC028B70BD00401C4685
:102290003C000020000000000000000000000000E2
:1022A000000000400000000000FEAF400000000001
:1022B00000000840FFF770B830B593B03021684691
:1022C000FDF7B6FF14210CA8FDF7B2FF1D4800254D
:1022D000016841F080510160006800F08050119069
:1022E0001948016841F4804101600068022400F44B
:1022F0008040119001200090000401908001CDE900
:10230000064008AA0420A82182E813000B90684622
:10231000FFF7C6F908B172B6FEE70CA90F2081E8F5
:1023200031004FF4A0500F904FF4805010900521D1
:102330000CA8FFF7CBF8002801D072B6FEE713B067
:1023400030BD000040380240007000400548016880
:1023500041F47001016003494FF00060803908606A
:102360007047000088ED00E00148FFF76FBC0000F7
:102370003C0000200148FFF769BC00007C00002001
:10238000F0B50268254C264D264E274F274B4FF0BF
:10239000804CA04209D0604507D0A84205D0B04289
:1023A00003D0B84201D0984204D122F0700E4A689E
:1023B00042EA0E02A0421BD0604519D0A84217D0B5
:1023C000B04215D0B84213D0984211D0184DA8424F
:1023D0000ED0184DA8420BD0174DA84208D0174D6B
:1023E000A84205D0164DA84202D0164DA84203D1EE
:1023F00022F44075CA682A434D6922F080022A43BC
:1024000002608A68C2620A688262A04201D0984271
:1024100001D10969016301214161F0BD0000014062
:102420000004004000080040000C0040000401408F
:1024300000400140004401400048014000180040B5
:10244000001C00400020004010B5846842EA0322CE
:1024500024F47F440A432243826010BD826822F044
:1024600070020A4342F007018160704710B5036AA9
:10247000046A24F001040462846924F0F00444EA4C
:10248000021423F00A020A438461026210BD10B5EF
:10249000036A23F0100303628369046A23F4704320
:1024A00043EA023224F0A00343EA0111826101628F
:1024B00010BD00000148FFF781BC0000BC000020F7
:1024C00010B5806B0021C185C184FFF776FC10BD7B
:1024D00070B5846B2068406994F83910C0F3C0105F
:1024E0000025212904D118B1E584204600F046F8E2
:1024F0002068406994F83A10C0F38010222904D172
:1025000018B1E585204600F02BF8E06B40F0100094
:10251000E0632046FFF751FC70BD10B50146806BAB
:1025200009680968C90513D40021C1850168CA6812
:1025300022F48072CA6001684A6922F001024A618D
:1025400001684A6922F040024A61202180F83A106D
:10255000FFF794FD10BD10B5806BFFF791FD10BD26
:102560000168CA6822F49072CA6001684A6922F060
:1025700001024A61202180F83A1070470168CA6858
:1025800022F0C002CA60202180F83910704710B5CF
:1025900090F83A10222901D0022010BD8168B1F5CF
:1025A000805F11D00169002901681FD0496801F0DE
:1025B0007F03816A4A1C82620B70C18D491E090427
:1025C000090CC18518D02BE00269816A002A0268D3
:1025D000526805D0D2B20A80816A491C8162ECE758
:1025E000C2F308020A80816A891CF7E74A68816A97
:1025F0004B1C83620A70E0E70168CA6822F020027F
:10260000CA600168CA6822F48072CA6001684A69B7
:1026100022F001024A61202180F83A10FFF72EFDD6
:10262000002010BD2DE9F041044600680169E26810
:1026300021F44051114301612169A068E269084316
:102640006169114308432168CA6849F20C639A43DF
:102650000243CA6020684169A26921F440711143B4
:102660004161E069192764253226B0F5004F354AEB
:10267000354920684FF0000806D0884201D09042CA
:1026800036D1FEF7CDFF35E0884201D0904202D12D
:10269000FEF7C6FF01E0FEF7B3FF61684A18A0FB32
:1026A000070148EB0803FDF78BFD0146B0FBF5F091
:1026B0000201B1FBF5F06FF01803584301EB800005
:1026C00006EBC000B0FBF5F000F0F80002EB4002B2
:1026D000B1FBF5F0584301EB800006EBC000B0FB06
:1026E000F5F000F00700216810448860BDE8F08133
:1026F000FEF786FF61688B0F8A00A0FB0701FDF7DC
:102700005FFD0146B0FBF5F06FF01802504301EB9E
:10271000800006EB0010B0FBF5F000F0F002B1FB1A
:10272000F5F002EB0012B1FBF5F06FF0180358431F
:1027300001EB800006EB0010B0FBF5F000F00F009D
:10274000D1E70000001401400010014090F839105A
:10275000212901D0022070478168B1F5805F016AAC
:102760000BD04A1C0262026809785160C18C491E74
:102770000904090CC1840ED017E009880268C1F36E
:102780000801516001690029016A02D0491C0162F7
:10279000ECE7891CFBE70168CA6822F08002CA6086
:1027A0000068C16841F04001C16000207047FEE749
:1027B0000907090E002804DB00F1E02080F800146E
:1027C000704700F00F0000F1E02080F8141D704702
:1027D00030B583B0044600F017F89FED090B0546AD
:1027E0008DED000B002221466846FDF7A8FE284625
:1027F00000F020F89DED000B03B030BD000000009C
:102800000000000000000000014800687047000060
:102810002400002002E008C8121F08C1002AFAD1D3
:1028200070477047002001E001C1121F002AFBD150
:102830007047000001490860704700002400002034
:1028400030380A2801D2012070470020704700006C
:102850001CB5FEF7A9FDFFF72FFD3C4800240168D9
:1028600041F080010160016801F080010091016880
:1028700041F001010160016801F00101009101686E
:1028800041F4001101600068002200F40010009083
:1028900011460D20FEF7E8FD0D20FEF7D7FD0022C2
:1028A00011461020FEF7E0FD1020FEF7CFFD0022BC
:1028B00011461120FEF7D8FD1120FEF7C7FD25496E
:1028C00000942348019408600846FEF7C9F908B14E
:1028D00072B6FEE72420CDE90004002269461D48B7
:1028E000FEF79AF908B172B6FEE71C20009010229C
:1028F00069461848FEF790F908B172B6FEE7FFF78F
:1029000017FCFFF749FC13481349943001604FF45A
:10291000E131C0E901140C21C460C0E904418461C3
:10292000C461FFF7D5FA08B172B6FEE709493C2247
:10293000D431A1F14000FFF755FB00210548FEF717
:102940000FFA10210348FEF70BFAFEE73038024079
:102950000074004028000020004C004070B515466F
:102960000E46FDF770FC04000AD03046FDF77DFCF2
:102970002044FFF72DFF51EC100BFDF78AFD286076
:1029800070BD0006101600061016000000000000C2
:10299000000001020304060708090000000001020C
:1029A0000304DDDDDDDDDCBBBBDDDDDDDDDDDDDD4F
:1029B000DDDD988888888888888877777777778832
:1029C0008888855555566666666666666666666874
:1029D0008888833333322222222222222222222872
:1029E000888D0000042A0008000000202800000054
:1029F000142800082C2A000828000020200B0000C2
:102A00002428000800000000000000000000000072
:102A100000000000000000000100000010000000A5
:0C2A2000000000000024F4000000000092
:040000050800018965
:00000001FF
